:020000040800F2
:100000000028002061100008F10F0008F70F000819
:10001000FD0F000803100008091000080000000090
:100020000000000000000000000000000F100008A9
:100030001B10000800000000271000083310000803
:10004000A9100008A9100008A9100008A9100008AC
:10005000A9100008A9100008A9100008A91000089C
:10006000A9100008A9100008A9100008A91000088C
:10007000A9100008A9100008A9100008A91000087C
:10008000A9100008A9100008A9100008A91000086C
:10009000A9100008A9100008A9100008A91000085C
:1000A000A9100008A9100008A9100008A91000084C
:1000B00041100008A910000800000000A910000865
:1000C000A91000080000000000000000A9100008AE
:1000D00000000000A9100008A9100008000000009E
:1000E000A9100008A9100008A910000800000000CD
:1000F0000000000000000000000000000000000000
:0C01000000000000000000005FF808F1A3
:10010C0010B5054C237833B9044B13B10448AFF345
:10011C0000800123237010BD64000020000000004B
:10012C000427000808B5034B1BB103490348AFF380
:10013C00008008BD000000006800002004270008B3
:10014C0080B483B000AF7860044A7B68012142F828
:10015C00231000BF0C37BD4680BC704780000020C8
:10016C0080B483B000AF7860044A7B68012142F808
:10017C00231000BF0C37BD4680BC70478C0000209C
:10018C0080B483B000AF7860094A7B6852F82330A2
:10019C00012B06D1064A7B68002142F8231001236B
:1001AC0000E0002318460C37BD4680BC704700BFEA
:1001BC008000002080B582B000AF00237B609DE002
:1001CC00534A7B6852F8232052497B6841F823201C
:1001DC00514A7B6852F823204D497B6841F8232013
:1001EC007B68022B21D07B68022B2ADC7B68002BDE
:1001FC0003D07B68012B0CD023E04FF400614748FF
:10020C0001F03AFA03461946434A7B6842F8231038
:10021C0018E04FF48051414801F02EFA034619467C
:10022C003D4A7B6842F823100CE04FF400513B48E8
:10023C0001F022FA03461946374A7B6842F823102C
:10024C0000E000BF344A7B6852F8232030497B68B9
:10025C0051F823309A424ED12D4A7B6852F8232014
:10026C002C497B6851F823309A4244D12C4A7B6844
:10027C0052F8232027497B6851F823309A4217D033
:10028C00244A7B6852F8232025497B6841F82320B7
:10029C00234A7B6852F82330002B2CD17868FFF767
:1002AC004FFF204A7B684FF4967142F8231022E0EE
:1002BC001B4A7B6852F82330002B1CD17B68012B26
:1002CC0002D07B68022B16D1164A7B6852F8233079
:1002DC005A1E14497B6841F82320124A7B6852F855
:1002EC002330002B07D17868FFF73AFF0D4A7B6863
:1002FC001E2142F823107B6801337B607B68022B44
:10030C007FF75EAF00BF00BF0837BD4680BD00BFA2
:10031C000C00002018000020000000200008014004
:10032C00240000203000002080B500AF644B1B6817
:10033C00013B032B00F2B98001A252F823F000BF5D
:10034C005D030008B50300080B04000861040008F5
:10035C00012202215B4801F0A6F90122042159482F
:10036C0001F0A1F901220821564801F09CF9564BE5
:10037C001B680121184600F057FC544B1B68012BDD
:10038C0007D14F4B02221A604F4B1B68184600F0E6
:10039C00B9F90020FFF7F4FE0346012B40F08780EB
:1003AC00474B0A221A6082E000220221454801F0E4
:1003BC007AF901220421434801F075F90122082140
:1003CC00404801F070F9404B1B680121184600F0C1
:1003DC002BFC3E4B1B68012B07D1394B03221A60B7
:1003EC003B4B1B68184600F08DF90020FFF7C8FE48
:1003FC000346012B5DD1324B0A221A6059E00122CF
:10040C000221304801F04FF9002204212D4801F05F
:10041C004AF9012208212B4801F045F92C4B1B68A5
:10042C000121184600F000FC284B1B68012B07D15A
:10043C00234B04221A60274B1B68184600F062F904
:10044C000020FFF79DFE0346012B34D11C4B0A22E2
:10045C001A6030E0012202211A4801F024F901222D
:10046C000421184801F01FF900220821154801F059
:10047C001AF9184B1B680121184600F0D5FB134BD9
:10048C001B68012B07D10E4B02221A600E4B1B6806
:10049C00184600F037F90020FFF772FE0346012BD7
:1004AC000BD1074B0A221A6007E000BF06E000BF21
:1004BC0004E000BF02E000BF00E000BF00BF80BD51
:1004CC00FC000020000801403C000020A00000209F
:1004DC00400000204400002080B500AF824B1B6818
:1004EC000C2B00F0AC800C2B00F3FB800A2B02D001
:1004FC000B2B52D0F5E0192000F01AF90022022142
:10050C007A4801F0D0F801220421784801F0CBF8A8
:10051C0001220821754801F0C6F8754B1B68012BA8
:10052C0006D10221714801F0D6F8192000F000F92B
:10053C000020FFF725FE0346012B05D16D4B002251
:10054C001A60694B0B221A600120FFF719FE034653
:10055C00012B0BD1674B1B680133664A1360654B4B
:10056C001B68632B02DD634B00221A600220FFF72D
:10057C0007FE0346012B09D15E4B1B685E4A1360D4
:10058C005C4B00221A60584B0B221A60594B1B68AB
:10059C000221184600F048FBA4E0192000F0C8F82E
:1005AC0001220221514801F07EF8002204214F481B
:1005BC0001F079F8012208214C4801F074F84C4BF9
:1005CC001B68012B06D10421484801F084F819203E
:1005DC0000F0AEF80020FFF7D3FD0346012B05D148
:1005EC00444B00221A60404B0C221A600120FFF78A
:1005FC00C7FD0346012B0BD13E4B1B6801333D4A13
:10060C0013603C4B1B68632B02DD3A4B00221A60D3
:10061C000220FFF7B5FD0346012B09D1354B1B68B2
:10062C00364A1360334B00221A602F4B0C221A608F
:10063C00304B1B680321184600F0F6FA52E01920E3
:10064C0000F076F801220221284801F02CF8012252
:10065C000421264801F027F800220821234801F044
:10066C0022F8234B1B68012B06D108211F4801F0EF
:10067C0032F8192000F05CF80020FFF781FD0346EA
:10068C00012B05D11B4B00221A60174B01221A605B
:10069C000120FFF775FD0346012B0BD1154B1B6891
:1006AC000133144A1360134B1B68632B02DD114B8F
:1006BC0000221A600220FFF763FD0346012B09D1CB
:1006CC000C4B1B680E4A13600A4B00221A60064B37
:1006DC0001221A60074B1B680421184600F0A4FA8B
:1006EC0000E000BF00BF80BDFC00002000080140FE
:1006FC00A8000020980000203C00002040000020B2
:10070C004400002080B483B000AF78607B68642222
:10071C0002FB03F3044A1360044B00221A6000BF6F
:10072C000C37BD4680BC70479C000020A000002008
:10073C0080B483B000AF7860054A7B681360054BCA
:10074C0000221A6000BF0C37BD4680BC704700BF4A
:10075C00A4000020A800002080B483B000AF786013
:10076C00054A7B681360054B00221A6000BF0C37EA
:10077C00BD4680BC704700BFAC000020B00000201C
:10078C0080B400AF194B1B68002B0BDD174B1B689B
:10079C00013B164A1360154B1B68002B02D1144BFE
:1007AC0001221A60134B1B68002B0BDD114B1B68CD
:1007BC00013B104A13600F4B1B68002B02D10E4BF0
:1007CC0001221A600D4B1B68002B0BDD0B4B1B68B9
:1007DC00013B0A4A1360094B1B68002B02D1084BE2
:1007EC0001221A6000BFBD4680BC70479C000020EF
:1007FC00A0000020A4000020A8000020AC000020D5
:10080C00B000002080B582B000AF78607B68002B10
:10081C0022D100220121BD4800F045FF0022022117
:10082C00BA4800F040FF00220421B84800F03BFF1A
:10083C0000220821B54800F036FF00221021B348F1
:10084C0000F031FF00222021B04800F02CFF0122E3
:10085C004021AE4800F027FF7B68012B22D10122FA
:10086C000121AA4800F01FFF00220221A74800F036
:10087C001AFF00220421A54800F015FF01220821CF
:10088C00A24800F010FF01221021A04800F00BFF3D
:10089C00012220219D4800F006FF012240219B48A7
:1008AC0000F001FF7B68022B22D100220121974826
:1008BC0000F0F9FE00220221944800F0F4FE01221F
:1008CC000421924800F0EFFE002208218F4800F02E
:1008DC00EAFE002210218D4800F0E5FE01222021C5
:1008EC008A4800F0E0FE00224021884800F0DBFE40
:1008FC007B68032B22D100220121844800F0D3FE17
:10090C0000220221814800F0CEFE002204217F4803
:10091C0000F0C9FE002208217C4800F0C4FE012230
:10092C0010217A4800F0BFFE01222021774800F008
:10093C00BAFE00224021754800F0B5FE7B68042BFE
:10094C0022D101220121714800F0ADFE00220221CA
:10095C006E4800F0A8FE002204216C4800F0A3FEB3
:10096C0001220821694800F09EFE012210216748EF
:10097C0000F099FE00222021644800F094FE002231
:10098C004021624800F08FFE7B68052B22D10022AB
:10099C0001215E4800F087FE012202215B4800F035
:1009AC0082FE00220421594800F07DFE002208211D
:1009BC00564800F078FE01221021544800F073FED6
:1009CC0000222021514800F06EFE002240214F48A9
:1009DC0000F069FE7B68062B22D1002201214B48D6
:1009EC0000F061FE01220221484800F05CFE00226A
:1009FC000421464800F057FE00220821434800F02D
:100A0C0052FE00221021414800F04DFE0022202110
:100A1C003E4800F048FE002240213C4800F043FED6
:100A2C007B68072B22D100220121384800F03BFEC5
:100A3C0000220221354800F036FE00220421334802
:100A4C0000F031FE01220821304800F02CFE01227A
:100A5C0010212E4800F027FE012220212B4800F007
:100A6C0022FE01224021294800F01DFE7B68082B44
:100A7C0022D100220121254800F015FE002202217E
:100A8C00224800F010FE00220421204800F00BFE4A
:100A9C00002208211D4800F006FE002210211B48F0
:100AAC0000F001FE00222021184800F0FCFD00227D
:100ABC004021164800F0F7FD7B68092B22D100225B
:100ACC000121124800F0EFFD002202210F4800F036
:100ADC00EAFD002204210D4800F0E5FD002208216A
:100AEC000A4800F0E0FD01221021084800F0DBFD6F
:100AFC0000222021054800F0D6FD002240210348A9
:100B0C0000F0D1FD00BF0837BD4680BD000C014090
:100B1C0080B582B000AF78607B68032B7AD801A2D5
:100B2C0052F823F0410B0008790B0008B10B0008B8
:100B3C00E90B000800224021394800F0B4FD0122E5
:100B4C008021374800F0AFFD01224FF4807134480A
:100B5C0000F0A9FD01224FF40071314800F0A3FD13
:100B6C00304B1B681846FFF74DFE54E00122402124
:100B7C002B4800F098FD00228021294800F093FDBD
:100B8C0001224FF48071264800F08DFD01224FF4B4
:100B9C000071234800F087FD224B5B681846FFF775
:100BAC0031FE38E0012240211D4800F07CFD01227D
:100BBC0080211B4800F077FD00224FF4807118480B
:100BCC0000F071FD01224FF40071154800F06BFD2F
:100BDC00144B9B681846FFF715FE1CE001224021C0
:100BEC000F4800F060FD012280210D4800F05BFDF4
:100BFC0001224FF480710A4800F055FD00224FF499
:100C0C000071074800F04FFD064BDB681846FFF7F4
:100C1C00F9FD00E000BF00BF0837BD4680BD00BF36
:100C2C00000801404800002080B483B000AF786019
:100C3C0039607B68092B06DC124B00221A60114AC2
:100C4C007B68536016E07B680F4A82FB031292109C
:100C5C00DB17D31A0B4A136079680B4B83FB012308
:100C6C009A10CB17D21A13469B0013445B00CA1A76
:100C7C00044B5A60034A3B68D36000BF0C37BD4637
:100C8C0080BC7047480000206766666680B500AF80
:100C9C0000F006FA00F064F800F0EAF800F09CF8B6
:100CAC002B4801F069F90220FFF72CFD0A20FFF711
:100CBC003FFD0A20FFF750FD264B01221A60FFF77B
:100CCC0033FBFFF709FC244B1B68032B02DD224B83
:100CDC0000221A60214B1B68012B0AD11E4B1B688A
:100CEC005A1C1D490A601846FFF712FF1920FFF71E
:100CFC0033FD1A4B1B68012B0AD1174B1B685A1C6E
:100D0C0015490A601846FFF703FF1920FFF724FD69
:100D1C00124B1B68012B0AD10F4B1B685A1C0E4936
:100D2C000A601846FFF7F4FE1920FFF715FD0B4B70
:100D3C001B68012BC3D1084B1B685A1C06490A605F
:100D4C001846FFF7E5FE1920FFF706FDB7E700BFD1
:100D5C00B4000020FC00002000010020B0000020A6
:100D6C0080B590B000AF07F1180328220021184677
:100D7C0001F0BAFC3B1D00221A605A609A60DA60DE
:100D8C001A610223BB610123BB621023FB620023A7
:100D9C007B6307F11803184600F0B6FC0346002BE2
:100DAC0001D000F0D3F80F237B600023BB6000233D
:100DBC00FB6000233B6100237B613B1D0021184637
:100DCC0000F024FF0346002B01D000F0BFF800BF59
:100DDC004037BD4680BD000080B586B000AF07F13E
:100DEC00080300221A605A609A60DA603B460022BF
:100DFC001A605A601D4B4FF080421A601B4B41F633
:100E0C003F725A60194B00229A60184B0922DA6023
:100E1C00164B00221A61154B00229A61134801F0FF
:100E2C005BF80346002B01D000F090F84FF4805390
:100E3C00BB6007F1080319460C4801F0F1F90346B1
:100E4C00002B01D000F082F800233B6000237B6074
:100E5C003B461946054801F0B9FB0346002B01D06F
:100E6C0000F074F800BF1837BD4680BDB4000020F8
:100E7C0080B586B000AF07F1080300221A605A60F3
:100E8C009A60DA60284B9B69274A43F0040393610C
:100E9C00254B9B6903F004037B607B68224B9B69A9
:100EAC00214A43F0080393611F4B9B6903F008032D
:100EBC003B603B68002240F2CE311C4800F0F3FB53
:100ECC0000227F211A4800F0EEFB40F2CE33BB60CB
:100EDC000123FB6000233B6102237B6107F10803C4
:100EEC001946124800F04CFA7F23BB600123FB60CB
:100EFC0000233B6102237B6107F1080319460C4870
:100F0C0000F03EFA4FF46053BB600023FB600123FA
:100F1C003B6107F108031946044800F031FA00BFA1
:100F2C001837BD4680BD00BF0010024000080140CC
:100F3C00000C014080B582B000AF7860FFF720FC58
:100F4C00FFF738F900BF0837BD4680BD80B400AF4D
:100F5C0072B600BFFEE7000080B483B000AF0E4B4A
:100F6C009B690D4A43F0010393610B4B9B6903F0A2
:100F7C0001037B607B68084BDB69074A43F08053B5
:100F8C00D361054BDB6903F080533B603B6800BFCA
:100F9C000C37BD4680BC70470010024080B584B051
:100FAC0000AF78607B681B68B3F1804F13D10C4B9A
:100FBC00DB690B4A43F00103D361094BDB6903F096
:100FCC000103FB60FB68002200211C2000F0A1F94A
:100FDC001C2000F0BAF900BF1037BD4680BD00BF21
:100FEC000010024080B400AFFEE780B400AFFEE713
:100FFC0080B400AFFEE780B400AFFEE780B400AF72
:10100C00FEE780B400AF00BFBD4680BC704780B423
:10101C0000AF00BFBD4680BC704780B400AF00BFBE
:10102C00BD4680BC704780B500AF00F07FF800BFB4
:10103C0080BD000080B500AF024800F0E9FF00BFA2
:10104C0080BD00BFB400002080B400AF00BFBD461F
:10105C0080BC70470C480D490D4A002302E0D4585F
:10106C00C4500433C4188C42F9D30A4A0A4C0023E6
:10107C0001E013600432A242FBD3FFF7E5FF01F05D
:10108C000FFBFFF703FE70470000002064000020F8
:10109C00442700086400002008010020FEE700003F
:1010AC0080B500AF084B1B68074A43F01003136070
:1010BC00032000F023F90F2000F008F8FFF74CFF95
:1010CC000023184680BD00BF0020024080B582B0CE
:1010DC0000AF7860124B1A68124B1B7819464FF40C
:1010EC007A73B3FBF1F3B2FBF3F3184600F03BF960
:1010FC000346002B01D001230EE07B680F2B0AD88E
:10110C00002279684FF0FF3000F003F9064A7B6843
:10111C001360002300E0012318460837BD4680BD4C
:10112C0058000020600000205C00002080B400AF5C
:10113C00054B1B781A46054B1B681344034A136076
:10114C0000BFBD4680BC7047600000200401002039
:10115C0080B400AF024B1B681846BD4680BC70477C
:10116C000401002080B485B000AF78607B6803F088
:10117C000703FB600C4BDB68BB60BA684FF6FF03E0
:10118C001340BB60FB681A02BB68134343F0BF6398
:10119C0043F40033BB60044ABB68D36000BF143710
:1011AC00BD4680BC704700BF00ED00E080B400AFCE
:1011BC00044BDB681B0A03F007031846BD4680BCD2
:1011CC00704700BF00ED00E080B483B000AF034671
:1011DC00FB7197F90730002B0BDBFB7903F01F0237
:1011EC00064997F907305B09012000FA02F241F831
:1011FC00232000BF0C37BD4680BC704700E100E0E7
:10120C0080B483B000AF03463960FB7197F90730A7
:10121C00002B0ADB3B68DAB20C4997F90730120154
:10122C00D2B20B4483F800230AE03B68DAB20849D7
:10123C00FB7903F00F03043B1201D2B20B441A7674
:10124C0000BF0C37BD4680BC704700BF00E100E01A
:10125C0000ED00E080B489B000AFF860B9607A604E
:10126C00FB6803F00703FB61FB69C3F10703042B65
:10127C0028BF0423BB61FB690433062B02D9FB692D
:10128C00033B00E000237B614FF0FF32BB6902FAA5
:10129C0003F3DA43BB681A407B699A404FF0FF3185
:1012AC007B6901FA03F3D9437B680B40134318465F
:1012BC002437BD4680BC704780B582B000AF7860E3
:1012CC007B68013BB3F1807F01D301230FE00A4A15
:1012DC007B68013B53600F214FF0FF30FFF790FF0D
:1012EC00054B00229A60044B07221A600023184613
:1012FC000837BD4680BD00BF10E000E080B582B06D
:10130C0000AF78607868FFF72DFF00BF0837BD4647
:10131C0080BD80B586B000AF0346B9607A60FB73C0
:10132C0000237B61FFF742FF78617A68B9687869BE
:10133C00FFF790FF024697F90F3011461846FFF75A
:10134C005FFF00BF1837BD4680BD80B582B000AFCF
:10135C000346FB7197F907301846FFF735FF00BFBE
:10136C000837BD4680BD80B582B000AF7860786824
:10137C00FFF7A2FF034618460837BD4680BD0000A4
:10138C0080B48BB000AF7860396000237B6200239F
:10139C003B6261E101227B6A02FA03F3FB613B6869
:1013AC001B68FA691340BB61BA69FB699A4240F049
:1013BC0050813B685B68974A93425ED0954A934252
:1013CC0075D8954A934258D0934A93426FD8934A12
:1013DC00934252D0914A934269D8914A93424CD04D
:1013EC008F4A934263D88F4A934246D08D4A934298
:1013FC005DD8122B2AD8122B59D801A252F823F0FF
:10140C00871400086114000873140008B514000850
:10141C00BB140008BB140008BB140008BB14000864
:10142C00BB140008BB140008BB140008BB14000854
:10143C00BB140008BB140008BB140008BB14000844
:10144C00BB140008691400087D140008764A934206
:10145C0013D02CE03B68DB683B6229E03B68DB681F
:10146C0004333B6224E03B68DB6808333B621FE0DB
:10147C003B68DB680C333B621AE03B689B68002BD3
:10148C0002D104233B6213E03B689B68012B05D11E
:10149C0008233B627B68FA691A6109E008233B6206
:1014AC007B68FA695A6103E000233B6200E000BFED
:1014BC00BB69FF2B01D87B6801E07B6804337B613F
:1014CC00BB69FF2B02D87B6A9B0002E07B6A083B5E
:1014DC009B003B617B691A680F213B6901FA03F39E
:1014EC00DB431A40396A3B6901FA03F31A437B69FF
:1014FC001A603B685B6803F08053002B00F0A980F6
:10150C004A4B9B69494A43F001039361474B9B69E2
:10151C0003F00103BB60BB68454A7B6A9B0802333E
:10152C0052F82330FB607B6A03F003039B000F220D
:10153C0002FA03F3DB43FA681340FB607B683D4A15
:10154C0093420DD07B683C4A934207D07B683B4A60
:10155C00934201D1022304E0032302E0012300E0C3
:10156C0000237A6A02F0030292009340FA68134354
:10157C00FB602F497B6A9B080233FA6841F82320F1
:10158C003B685B6803F48033002B06D02C4B1A6845
:10159C002B49BB6913430B6006E0294B1A68BB69E6
:1015AC00DB43274913400B603B685B6803F4003353
:1015BC00002B06D0224B5A682149BB6913434B6060
:1015CC0006E01F4B5A68BB69DB431D4913404B6057
:1015DC003B685B6803F48013002B06D0184B9A68A9
:1015EC001749BB6913438B6006E0154B9A68BB69BE
:1015FC00DB43134913408B603B685B6803F40013B7
:10160C00002B1FD00E4BDA680D49BB691343CB601E
:10161C001FE000BF0000321000003110000022104B
:10162C0000002110000012100000111000100240E8
:10163C000000014000080140000C01400010014076
:10164C00000401400B4BDA68BB69DB4309491340CA
:10165C00CB607B6A01337B623B681A687B6A22FA37
:10166C0003F3002B7FF496AE00BF00BF2C37BD46B2
:10167C0080BC70470004014080B485B000AF786036
:10168C000B467B807B689A687B881340002B02D0CA
:10169C000123FB7301E00023FB73FB7B184614371B
:1016AC00BD4680BC704780B483B000AF78600B46F9
:1016BC007B8013467B707B78002B03D07A887B6809
:1016CC001A6103E07B881A047B681A6100BF0C372F
:1016DC00BD4680BC704780B485B000AF78600B46C7
:1016EC007B807B68DB68FB607A88FB6813401A049C
:1016FC00FB68D9437B880B401A437B681A6100BF97
:10170C001437BD4680BC704780B586B000AF78609A
:10171C007B68002B01D1012372E27B681B6803F00C
:10172C000103002B00F08780924B5B6803F00C03E5
:10173C00042B0CD08F4B5B6803F00C03082B12D1DD
:10174C008C4B5B6803F48033B3F5803F0BD1894B32
:10175C001B6803F40033002B6CD07B685B68002B98
:10176C0068D101234CE27B685B68B3F5803F06D1FE
:10177C00804B1B687F4A43F4803313602EE07B68F8
:10178C005B68002B0CD17B4B1B687A4A23F48033AB
:10179C001360784B1B68774A23F4802313601DE099
:1017AC007B685B68B3F5A02F0CD1724B1B68714A38
:1017BC0043F4802313606F4B1B686E4A43F48033F1
:1017CC0013600BE06B4B1B686A4A23F48033136085
:1017DC00684B1B68674A23F4802313607B685B6843
:1017EC00002B13D0FFF7B4FC386108E0FFF7B0FC16
:1017FC0002463B69D31A642B01D9032300E25D4BEB
:10180C001B6803F40033002BF0D014E0FFF7A0FCAE
:10181C00386108E0FFF79CFC02463B69D31A642B45
:10182C0001D90323ECE1534B1B6803F40033002B69
:10183C00F0D100E000BF7B681B6803F00203002BB3
:10184C0063D04C4B5B6803F00C03002B0BD0494B63
:10185C005B6803F00C03082B1CD1464B5B6803F44C
:10186C008033002B16D1434B1B6803F00203002B73
:10187C0005D07B681B69012B01D00123C0E13D4BD6
:10188C001B6823F0F8027B685B69DB003949134362
:10189C000B603AE07B681B69002B20D0364B012291
:1018AC001A60FFF755FC386108E0FFF751FC02465F
:1018BC003B69D31A022B01D90323A1E12D4B1B68E1
:1018CC0003F00203002BF0D02A4B1B6823F0F80224
:1018DC007B685B69DB00274913430B6015E0264BE3
:1018EC0000221A60FFF734FC386108E0FFF730FC87
:1018FC0002463B69D31A022B01D9032380E11D4B0D
:10190C001B6803F00203002BF0D17B681B6803F00B
:10191C000803002B3AD07B689B69002B19D0174B1E
:10192C0001221A60FFF714FC386108E0FFF710FC85
:10193C0002463B69D31A022B01D9032360E10D4BFC
:10194C005B6A03F00203002BF0D0012000F0A6FA32
:10195C001CE00A4B00221A60FFF7FAFB38610FE01B
:10196C00FFF7F6FB02463B69D31A022B08D9032377
:10197C0046E100BF00100240000042428004424297
:10198C00924B5B6A03F00203002BE9D17B681B6866
:10199C0003F00403002B00F0A6800023FB758B4B97
:1019AC00DB6903F08053002B0DD1884BDB69874A30
:1019BC0043F08053D361854BDB6903F08053BB60EC
:1019CC00BB680123FB75824B1B6803F48073002BEF
:1019DC0018D17F4B1B687E4A43F480731360FFF76A
:1019EC00B7FB386108E0FFF7B3FB02463B69D31A3B
:1019FC00642B01D9032303E1754B1B6803F480733B
:101A0C00002BF0D07B68DB68012B06D16F4B1B6A77
:101A1C006E4A43F0010313622DE07B68DB68002BF8
:101A2C000CD16A4B1B6A694A23F001031362674BA2
:101A3C001B6A664A23F0040313621CE07B68DB68B4
:101A4C00052B0CD1614B1B6A604A43F004031362F3
:101A5C005E4B1B6A5D4A43F0010313620BE05B4B68
:101A6C001B6A5A4A23F001031362584B1B6A574AEC
:101A7C0023F0040313627B68DB68002B15D0FFF79F
:101A8C0067FB38610AE0FFF763FB02463B69D31A38
:101A9C0041F28832934201D90323B1E04B4B1B6ACC
:101AAC0003F00203002BEED014E0FFF751FB38617A
:101ABC000AE0FFF74DFB02463B69D31A41F288322C
:101ACC00934201D903239BE0404B1B6A03F00203B2
:101ADC00002BEED1FB7D012B05D13C4BDB693B4A46
:101AEC0023F08053D3617B68DB69002B00F0878087
:101AFC00364B5B6803F00C03082B61D07B68DB6909
:101B0C00022B46D1334B00221A60FFF721FB3861C0
:101B1C0008E0FFF71DFB02463B69D31A022B01D9E3
:101B2C0003236DE0294B1B6803F00073002BF0D1ED
:101B3C007B681B6AB3F5803F08D1244B5B6823F4A8
:101B4C0000327B689B68214913434B601F4B5B68D9
:101B5C0023F474127B68196A7B685B6A0B431B491C
:101B6C0013434B601B4B01221A60FFF7F1FA3861EB
:101B7C0008E0FFF7EDFA02463B69D31A022B01D9B4
:101B8C0003233DE0114B1B6803F00073002BF0D0D6
:101B9C0035E0104B00221A60FFF7DAFA386108E0E2
:101BAC00FFF7D6FA02463B69D31A022B01D903235D
:101BBC0026E0064B1B6803F00073002BF0D11EE0EF
:101BCC007B68DB69012B07D1012319E0001002406F
:101BDC0000700040600042420B4B5B68FB60FB688E
:101BEC0003F480327B681B6A9A4206D1FB6803F4CB
:101BFC0070127B685B6A9A4201D0012300E00023DB
:101C0C0018461837BD4680BD0010024080B584B020
:101C1C0000AF786039607B68002B01D10123D0E0E4
:101C2C006A4B1B6803F007033A689A4210D9674B5A
:101C3C001B6823F0070265493B6813430B60634B39
:101C4C001B6803F007033A689A4201D00123B8E0FD
:101C5C007B681B6803F00203002B20D07B681B6899
:101C6C0003F00403002B05D0594B5B68584A43F42E
:101C7C00E06353607B681B6803F00803002B05D0FE
:101C8C00534B5B68524A43F460535360504B5B6850
:101C9C0023F0F0027B689B684D4913434B607B68D3
:101CAC001B6803F00103002B40D07B685B68012BA1
:101CBC0007D1474B1B6803F40033002B15D10123CC
:101CCC007FE07B685B68022B07D1414B1B6803F0FC
:101CDC000073002B09D1012373E03D4B1B6803F00B
:101CEC000203002B01D101236BE0394B5B6823F01D
:101CFC0003027B685B68364913434B60FFF728FA95
:101D0C00F8600AE0FFF724FA0246FB68D31A41F2A6
:101D1C008832934201D9032353E02D4B5B6803F0C7
:101D2C000C027B685B689B009A42EBD1274B1B68CB
:101D3C0003F007033A689A4210D2244B1B6823F035
:101D4C00070222493B6813430B60204B1B6803F0CE
:101D5C0007033A689A4201D0012332E07B681B6882
:101D6C0003F00403002B08D0194B5B6823F4E062EA
:101D7C007B68DB68164913434B607B681B6803F078
:101D8C000803002B09D0124B5B6823F460527B686C
:101D9C001B69DB000E4913434B6000F021F802462F
:101DAC000B4B5B681B0903F00F030A49CB5C22FA4F
:101DBC0003F3094A1360094B1B681846FFF786F9B1
:101DCC00002318461037BD4680BD00BF00200240DE
:101DDC00001002402C270008580000205C00002056
:101DEC0090B48AB000AF294B3C1D0FCB84E80F0098
:101DFC0040F201233B800023FB610023BB610023E5
:101E0C007B6200237B6100233B62214B5B68FB619F
:101E1C00FB6903F00C03042B02D0082B03D02BE03E
:101E2C001C4B3B622BE0FB699B0C03F00F0328332C
:101E3C003B4413F8243C7B61FB6903F48033002B97
:101E4C0012D0134B5B685B0C03F0010328333B444B
:101E5C0013F8283CBB617B690E4A03FB02F2BB6999
:101E6C00B2FBF3F37B6204E07B690B4A02FB03F3E6
:101E7C007B627B6A3B6202E0064B3B6200BF3B6AC3
:101E8C0018462837BD4690BC704700BF1C27000879
:101E9C000010024000127A0000093D0080B485B0A9
:101EAC0000AF78600A4B1B680A4AA2FB03235B0A4B
:101EBC007A6802FB03F3FB6000BFFB685A1EFA60F2
:101ECC00002BF9D100BF00BF1437BD4680BC704752
:101EDC0058000020D34D621080B582B000AF7860FE
:101EEC007B68002B01D1012341E07B6893F83D30E6
:101EFC00DBB2002B06D17B68002283F83C2078688B
:101F0C00FFF74CF87B68022283F83D207B681A6847
:101F1C007B6804331946104600F06AFA7B6801228C
:101F2C0083F846207B68012283F83E207B680122DF
:101F3C0083F83F207B68012283F840207B680122D4
:101F4C0083F841207B68012283F842207B680122C0
:101F5C0083F843207B68012283F844207B680122AC
:101F6C0083F845207B68012283F83D200023184626
:101F7C000837BD4680BD000080B485B000AF7860E6
:101F8C007B6893F83D30DBB2012B01D0012335E0A7
:101F9C007B68022283F83D207B681B68DA687B68CB
:101FAC001B6842F00102DA607B681B68164A934298
:101FBC0009D07B681B68B3F1804F04D07B681B6829
:101FCC00124A934211D17B681B689B6803F007038C
:101FDC00FB60FB68062B10D07B681B681A687B685B
:101FEC001B6842F001021A6007E07B681B681A68E4
:101FFC007B681B6842F001021A60002318461437F4
:10200C00BD4680BC704700BF002C0140000400405E
:10201C0080B582B000AF78607B681B681B6903F0E9
:10202C000203022B22D17B681B68DB6803F00203DE
:10203C00022B1BD17B681B686FF002021A617B6854
:10204C0001221A777B681B689B6903F00303002B42
:10205C0003D0786800F0B1F905E0786800F0A4F9D5
:10206C00786800F0B3F97B6800221A777B681B68EC
:10207C001B6903F00403042B22D17B681B68DB680B
:10208C0003F00403042B1BD17B681B686FF0040264
:10209C001A617B6802221A777B681B689B6903F4C0
:1020AC004073002B03D0786800F087F905E078685E
:1020BC0000F07AF9786800F089F97B6800221A77C9
:1020CC007B681B681B6903F00803082B22D17B6813
:1020DC001B68DB6803F00803082B1BD17B681B68AB
:1020EC006FF008021A617B6804221A777B681B6800
:1020FC00DB6903F00303002B03D0786800F05DF973
:10210C0005E0786800F050F9786800F05FF97B68BA
:10211C0000221A777B681B681B6903F01003102BD5
:10212C0022D17B681B68DB6803F01003102B1BD1DA
:10213C007B681B686FF010021A617B6808221A77A3
:10214C007B681B68DB6903F44073002B03D0786851
:10215C0000F033F905E0786800F026F9786800F0B3
:10216C0035F97B6800221A777B681B681B6903F0C2
:10217C000103012B0ED17B681B68DB6803F00103A4
:10218C00012B07D17B681B686FF001021A6178681C
:10219C00FEF7D0FE7B681B681B6903F08003802B65
:1021AC000ED17B681B68DB6803F08003802B07D1A2
:1021BC007B681B686FF080021A61786800F067FA20
:1021CC007B681B681B6903F04003402B0ED17B68B6
:1021DC001B68DB6803F04003402B07D17B681B684E
:1021EC006FF040021A61786800F0F9F87B681B68A0
:1021FC001B6903F02003202B0ED17B681B68DB6866
:10220C0003F02003202B07D17B681B686FF02002A2
:10221C001A61786800F032FA00BF0837BD4680BDFD
:10222C0080B584B000AF786039607B6893F83C303F
:10223C00012B01D10223B3E07B68012283F83C20FF
:10224C007B68022283F83D207B681B689B68FB60DF
:10225C00FB6823F07703FB60FB6823F47F43FB6090
:10226C007B681B68FA689A603B681B68B3F5005F73
:10227C003ED0B3F5005F00F28780B3F5805F00F0CD
:10228C008580B3F5805F7FD8702B1AD0702B7BD8EC
:10229C00602B50D0602B77D8502B3CD0502B73D860
:1022AC00402B58D0402B6FD8302B64D0302B6BD8B0
:1022BC00202B60D0202B67D8002B5CD0102B5AD051
:1022CC0062E07B6818683B6899683B685A683B68B1
:1022DC00DB6800F05CF97B681B689B68FB60FB6843
:1022EC0043F07703FB607B681B68FA689A604EE0EA
:1022FC007B6818683B6899683B685A683B68DB6880
:10230C0000F045F97B681B689A687B681B6842F48F
:10231C0080429A603BE07B6818683B6859683B6870
:10232C00DB681A4600F0BCF87B681B685021184625
:10233C0000F013F92BE07B6818683B6859683B6820
:10234C00DB681A4600F0DAF87B681B6860211846D7
:10235C0000F003F91BE07B6818683B6859683B6820
:10236C00DB681A4600F09CF87B681B684021184615
:10237C0000F0F3F80BE07B681A683B681B681946A1
:10238C00104600F0EAF802E000BF00E000BF7B68F6
:10239C00012283F83D207B68002283F83C20002337
:1023AC0018461037BD4680BD80B483B000AF78604E
:1023BC0000BF0C37BD4680BC704780B483B000AF03
:1023CC00786000BF0C37BD4680BC704780B483B0CA
:1023DC0000AF786000BF0C37BD4680BC704780B43E
:1023EC0083B000AF786000BF0C37BD4680BC70472F
:1023FC0080B485B000AF786039607B681B68FB6087
:10240C007B68254A934207D07B68B3F1804F03D099
:10241C007B68224A934208D1FB6823F07003FB606F
:10242C003B685B68FA681343FB607B681A4A93420B
:10243C0007D07B68B3F1804F03D07B68174A934277
:10244C0008D1FB6823F44073FB603B68DB68FA68D7
:10245C001343FB60FB6823F080023B685B6913430A
:10246C00FB607B68FA681A603B689A687B68DA6282
:10247C003B681A687B689A627B68074A934203D16F
:10248C003B681A697B681A637B6801225A6100BF3A
:10249C001437BD4680BC7047002C0140000400403E
:1024AC0080B487B000AFF860B9607A60FB681B6AD3
:1024BC007B61FB681B6A23F00102FB681A62FB68F4
:1024CC009B693B613B6923F0F0033B617B681B011B
:1024DC003A6913433B617B6923F00A037B617A6998
:1024EC00BB6813437B61FB683A699A61FB687A6944
:1024FC001A6200BF1C37BD4680BC704780B487B0E1
:10250C0000AFF860B9607A60FB681B6A23F01002B8
:10251C00FB681A62FB689B697B61FB681B6A3B6109
:10252C007B6923F470437B617B681B037A691343DB
:10253C007B613B6923F0A0033B61BB681B013A69DB
:10254C0013433B61FB687A699A61FB683A691A62CA
:10255C0000BF1C37BD4680BC704780B485B000AF4F
:10256C00786039607B689B68FB60FB6823F07003C4
:10257C00FB603A68FB68134343F00703FB607B681E
:10258C00FA689A6000BF1437BD4680BC704780B4AF
:10259C0087B000AFF860B9607A603B60FB689B68FD
:1025AC007B617B6923F47F437B613B681A027B6808
:1025BC001A43BB6813437A6913437B61FB687A69DE
:1025CC009A6000BF1C37BD4680BC704780B485B094
:1025DC0000AF786039607B6893F83C30012B01D1F7
:1025EC00022341E07B68012283F83C207B680222B5
:1025FC0083F83D207B681B685B68FB607B681B680D
:10260C009B68BB60FB6823F07003FB603B681B6836
:10261C00FA681343FB607B681B68FA685A607B6836
:10262C001B68144A934209D07B681B68B3F1804F36
:10263C0004D07B681B68104A93420CD1BB6823F012
:10264C008003BB603B685B68BA681343BB607B6804
:10265C001B68BA689A607B68012283F83D207B680E
:10266C00002283F83C20002318461437BD4680BC5A
:10267C00704700BF002C01400004004080B483B0C0
:10268C0000AF786000BF0C37BD4680BC704780B48B
:10269C0083B000AF786000BF0C37BD4680BC70477C
:1026AC0070B500260C4D0D4C641BA410A64209D12C
:1026BC0000F022F800260A4D0A4C641BA410A64216
:1026CC0005D170BD55F8043B98470136EEE755F837
:1026DC00043B98470136F2E73C2700083C270008EA
:1026EC003C2700084027000803460244934200D1CF
:1026FC00704703F8011BF9E7F8B500BFF8BC08BC3C
:10270C009E467047F8B500BFF8BC08BC9E467047A3
:10271C0002030405060708090A0B0C0D0E0F101016
:10272C000000000000000000010203040607080975
:04273C00310100085F
:042740000D0100087F
:102744000100000001000000010000000100000081
:102754000100000001000000010000000100000071
:102764000100000001000000010000000100000061
:102774002C0100002C0100002C01000001000000CD
:102784000100000001000000000000000100000042
:1027940000000000010000000024F400100000000C
:0427A4000100000030
:04000005080010617E
:00000001FF
